:100000000C9462000C948A000C948A000C948A0070
:100010000C948A000C948A000C948A000C948A0038
:100020000C948A000C948A000C948A000C948A0028
:100030000C948A000C948A000C948A000C948A0018
:100040000C9480030C948A000C944E030C942803A7
:100050000C948A000C948A000C948A000C948A00F8
:100060000C948A000C948A000000000024002700F1
:100070002A0000000000250028002B0000000008D6
:10008000000201000003040700000000000000005F
:1000900000000000230026002900040404040404D6
:1000A0000404020202020202030303030303010227
:1000B00004081020408001020408102001020408F6
:1000C00010200F0411241FBECFEFD8E0DEBFCDBF3C
:1000D00011E0A0E0B1E0E8E9F2E102C005900D9284
:1000E000A839B107D9F722E0A8E9B1E001C01D9213
:1000F000AE36B207E1F710E0C2E6D0E004C02197C7
:10010000FE010E944409C136D107C9F70E9460046C
:100110000C944A090C9400008230910538F0880F45
:10012000991F880F991F05970197F1F70895AF92CE
:10013000BF92CF92DF92EF92FF920F931F93CF93D4
:10014000DF936C017B018B01040F151FEB015E0136
:10015000AE18BF08C017D10759F06991D601ED91CB
:10016000FC910190F081E02DC6010995892B79F76A
:10017000C501DF91CF911F910F91FF90EF90DF901C
:10018000CF90BF90AF900895FC01538D448D252FE3
:1001900030E0842F90E0821B930B541710F0CF9621
:1001A000089501970895FC01918D828D981761F053
:1001B000A28DAE0FBF2FB11D5D968C91928D9F5F6A
:1001C0009F73928F90E008958FEF9FEF0895FC0149
:1001D000918D828D981731F0828DE80FF11D858DFC
:1001E00090E008958FEF9FEF0895FC01918D228D8F
:1001F000892F90E0805C9F4F821B91098F73992714
:1002000008958EE991E00E94F50021E0892B09F420
:1002100020E0822F089580E090E0892B29F00E9451
:10022000010181110C9400000895FC01A48DA80F18
:10023000B92FB11DA35ABF4F2C91848D90E0019628
:100240008F739927848FA689B7892C93A089B18948
:100250008C91837080648C93938D848D981306C0E9
:100260000288F389E02D80818F7D80830895EF924D
:10027000FF920F931F93CF93DF93EC0181E0888F60
:100280009B8D8C8D98131AC0E889F989808185FF30
:1002900015C09FB7F894EE89FF896083E889F989D2
:1002A00080818370806480839FBF81E090E0DF91D4
:1002B000CF911F910F91FF90EF900895F62E0B8D27
:1002C00010E00F5F1F4F0F731127E02E8C8D8E11E2
:1002D0000CC00FB607FCFACFE889F989808185FF49
:1002E000F5CFCE010E941501F1CFEB8DEC0FFD2F64
:1002F000F11DE35AFF4FF0829FB7F8940B8FEA8904
:10030000FB8980818062CFCFCF93DF93EC01888D12
:100310008823B9F0AA89BB89E889F9898C9185FD80
:1003200003C0808186FD0DC00FB607FCF7CF8C910E
:1003300085FFF2CF808185FFEDCFCE010E941501B0
:10034000E9CFDF91CF91089590E0FC01E458FF4F91
:100350002491FC01E255FF4F3491FC01E656FF4F1A
:10036000E491EE23C9F0222339F0233001F1A8F4FF
:10037000213019F1223029F1F0E0EE0FFF1FEE5885
:10038000FF4FA591B4918FB7F894EC91611126C0FD
:1003900030953E233C938FBF08952730A9F0283035
:1003A000C9F0243049F7809180008F7D03C080918F
:1003B00080008F7780938000DFCF84B58F7784BDF6
:1003C000DBCF84B58F7DFBCF8091B0008F7780939A
:1003D000B000D2CF8091B0008F7DF9CF3E2BDACF25
:1003E000CF93DF93C82FD0E080915B02D81758F4E9
:1003F000ED2FF0E0ED5BFD4F6091460287850E9496
:10040000A401DF5FF1CFEC2FF0E0ED5BFD4F6091D9
:1004100044028781DF91CF910C94A401CF93DF93A5
:10042000C82FD0E080915A02D81758F4ED2FF0E091
:10043000ED5BFD4F6091440287810E94A401DF5F64
:10044000F1CFEC2FF0E0ED5BFD4F60914602878528
:10045000DF91CF910C94A4011F93CF93DF93C82F0A
:10046000D0E0CD5BDD4F609143028F810E94A401FB
:1004700010E06A9680915B021817A8F4E12FF0E073
:10048000888190E0012E02C0959587950A94E2F745
:1004900080FF07C0ED5BFD4F6091450287850E949C
:1004A000A4011F5FE7CFDF91CF911F9108950F93B4
:1004B0001F93CF93C82FE82FF0E0ED5BFD4F6091C5
:1004C000450287850E94A40101E010E002C0000FF0
:1004D000111FCA95E2F7C0E080915A02C81788F44C
:1004E000EC2FF0E0ED5BFD4F828D90E080239123B7
:1004F000892B29F06091430287810E94A401CF5F7C
:10050000EBCFCF911F910F910895CF93DF9390E0A0
:10051000FC01E255FF4F249186569F4FFC018491C8
:100520008823D1F090E0880F991FFC01E859FF4F14
:10053000A591B491FC01EE58FF4FC591D491611182
:100540000EC09FB7F8948C91E22FE0958E238C9388
:100550002881E223E8839FBFDF91CF9108958FB771
:10056000F894EC91E22BEC938FBFF6CF3FB7F89461
:100570008091990190919A01A0919B01B0919C0169
:1005800026B5A89B05C02F3F19F00196A11DB11DEE
:100590003FBFBA2FA92F982F8827BC01CD01620F2A
:1005A000711D811D911D42E0660F771F881F991FE5
:1005B0004A95D1F708958F929F92AF92BF92CF92B2
:1005C000DF92EF92FF924B015C010E94B6026B0139
:1005D0007C010E94B6026C197D098E099F09683E54
:1005E000734081059105A8F321E0821A9108A108C2
:1005F000B10888EEC80E83E0D81EE11CF11C8114FE
:100600009104A104B10429F7FF90EF90DF90CF90FF
:10061000BF90AF909F908F900895FC0101900020B3
:10062000E9F73197AF01481B590BBC018EE991E006
:100630000C949700CF93DF930E940D03EC018BE69F
:1006400091E00E940D038C0F9D1FDF91CF910895C3
:100650001F920F920FB60F9211242F933F934F9337
:100660005F936F937F938F939F93AF93BF93EF931A
:10067000FF938EE991E00E941501FF91EF91BF91E8
:10068000AF919F918F917F916F915F914F913F912A
:100690002F910F900FBE0F901F9018951F920F92E1
:1006A0000FB60F9211242F938F939F93EF93FF9385
:1006B000E091AE01F091AF018081E091B401F09141
:1006C000B50182FD1BC090818091B7018F5F8F7350
:1006D0002091B801821741F0E091B701F0E0E256B5
:1006E000FE4F958F8093B701FF91EF919F918F916E
:1006F0002F910F900FBE0F901F9018958081F4CF0F
:100700001F920F920FB60F9211242F933F938F9346
:100710009F93AF93BF9380913B0290913C02A09135
:100720003D02B0913E023091980123E0230F2D3716
:1007300058F50196A11DB11D2093980180933B02AD
:1007400090933C02A0933D02B0933E0280919901A8
:1007500090919A01A0919B01B0919C010196A11DDD
:10076000B11D8093990190939A01A0939B01B0933E
:100770009C01BF91AF919F918F913F912F910F90CD
:100780000FBE0F901F90189526E8230F0296A11D0B
:10079000B11DD2CFCF92DF92EF92FF920F931F93B2
:1007A000E82FF92F05C0015011092109310961F124
:1007B000908196239417B9F305C0015011092109BE
:1007C000310911F1908196239413F7CFC12CD12CCC
:1007D000E12CF12C0AC08FEFC81AD80AE80AF80AEF
:1007E0000C151D052E053F0579F0808186238417A1
:1007F00091F36C2D7D2D8E2D9F2D1F910F91FF90CC
:10080000EF90DF90CF90089560E070E080E090E09E
:100810001F910F91FF90EF90DF90CF900895EEE938
:10082000F1E01382128288EE93E0A0E0B0E08483CE
:100830009583A683B7838DE591E09183808385ECD2
:1008400090E09587848784EC90E09787868780EC9A
:1008500090E0918B808B81EC90E0938B828B82EC8B
:1008600090E0958B848B86EC90E0978B868B118E35
:10087000128E138E148EE3E4F2E080ED97E097A3DE
:1008800086A311A610A612A6178A118E12A213A271
:1008900014A215A2148215822FB7F89480913B02FE
:1008A00090913C02A0913D02B0913E022FBF8093F7
:1008B0003F0290934002A0934102B09342020895F8
:1008C000CF93DF93CDB7DEB7A8970FB6F894DEBF0E
:1008D0000FBECDBF789484B5826084BD84B581603D
:1008E00084BD85B5826085BD85B5816085BD8091FB
:1008F0006E00816080936E00109281008091810073
:10090000826080938100809181008160809381006A
:10091000809180008160809380008091B10084602C
:100920008093B1008091B00081608093B00080918D
:100930007A00846080937A0080917A00826080934C
:100940007A0080917A00816080937A0080917A00A9
:10095000806880937A001092C100E091AE01F0911E
:10096000AF0182E08083E091AA01F091AB01108297
:10097000E091AC01F091AD018FEC80831092B60153
:10098000E091B201F091B30186E08083E091B00183
:10099000F091B101808180618083E091B001F0919C
:1009A000B101808188608083E091B001F091B10154
:1009B000808180688083E091B001F091B1018081F5
:1009C0008F7D808361E082E00E94850260E083E0A9
:1009D0000E94850261E081E10E94850261E080E180
:1009E0000E94850261E08EE00E94850288E0E0E0DE
:1009F000F1E09E012F5F3F4F4901D90101900D9217
:100A00008A95E1F781E080934702109248021092A4
:100A1000490280935A0298E090935B02109243023D
:100A2000809345028093440210924602F901A2E5A8
:100A3000B2E0CE01099621912D938E179F07D9F729
:100A40008AA180934A0210E080915A02181798F404
:100A5000812F90E0AC014D5B5D4F7A0161E0FA01BE
:100A600087810E94850260914402F70187810E947C
:100A7000A4011F5FE9CF10E080915B02181750F0CE
:100A800090915A02EDE5F2E080E09817B1F01192F2
:100A90008F5FFBCF812F90E09C012D5B3D4F790153
:100AA00061E0F90187850E94850260914602F701A5
:100AB00087850E94A4011F5FDFCF80E00E940E02A5
:100AC00080E00E94F00180ED97E090936A028093AD
:100AD000690210926C0210926B0210926D0260E03B
:100AE00082E00E94A40183E090E00197F1F761E0C9
:100AF00082E00E94A40183E290E00197F1F760E0B8
:100B000082E00E94A401E1EBF0E06491EDE9F0E005
:100B10008491E82FF0E0EE0FFF1FE057FF4F859123
:100B2000949100E412E42FE030E0462F0E94CA03C3
:100B3000611571058105910529F06F5F7F4F8F4F1A
:100B40009F4F9F700E944B0826E933E44BE05DE322
:100B50000E94AF0820E030E040E05FE30E94AF0871
:100B60000E9413086B017C0168EE73E080E090E066
:100B70000E94DB02F3E3CF16D104E104F1040CF48C
:100B800093C08EE691E00E941A0388E080939D0155
:100B900061E081E10E94A40160E080E10E94A40183
:100BA00060E08EE00E94A4018AE891E00E940D03BB
:100BB000F7FE9EC06DE28EE991E00E943701222788
:100BC0003327A9012C193D094E095F0919A28E018D
:100BD0000F5D1F4FCA01B9012AE030E040E050E04C
:100BE0000E94E207605DF80162938F0121153105D3
:100BF0004105510579F70115110519F0C8010E9449
:100C00000D0383E991E00E941A038BE691E00E94B4
:100C10000D0368E770E080E090E00E94DB028091C5
:100C20009D01F82FF1706F2EC82ED12CF12CE12CE4
:100C300070905A02072D10E09801220F331F220FE7
:100C4000331F3CA32BA3F901EF5CFE4F8081918100
:100C5000A281B381C816D906EA06FB060CF460C06F
:100C6000F4018E2F8819871508F4A8C001501109C6
:100C700006191109A3E4B2E0940190E080E0871521
:100C800008F0BCC0F90141919F01E42FF0E0E85F5A
:100C9000FE4F40810817190709F4AEC05A964C93CD
:100CA0005A9701961196EBCF2BE0C216D104E104BE
:100CB000F1046CF089E791E00E941A0385E08093CB
:100CC0009D0160E081E10E94A40161E066CF83E8BC
:100CD00091E00E941A0333E030939D0160E081E1CE
:100CE0000E94A40160E080E10E94A40161E059CF6C
:100CF000A701960119A28E010F5D1F4FCA01B9010C
:100D00002AE030E040E050E00E94E207605DF80138
:100D100062938F01211531054105510579F76BCF9C
:100D2000ABA1BCA1A35DBE4F8D919D910D90BC91D7
:100D3000A02D21E030E040E050E0281B390B4A0BA9
:100D40005B0BDA01C901C816D906EA06FB060CF4EA
:100D500087CF5F019EA28DA22CEF2003A001219FCF
:100D6000500D112458A74FA381E3A81681E0B806BF
:100D700041F194E0A91AB108EFA1F8A5EA0DFB1D15
:100D80002BA13CA1E20FF31F2080318042805380D1
:100D9000C701B601A20191010E94B807EDA1FEA111
:100DA0002193FEA3EDA3A22FB0E0A20191010E9426
:100DB000D707C61AD70AE80AF90AD6CF55E25193DF
:100DC00050CF80914902811151CF980121503109B2
:100DD00026193109E82FF0E0E217F3070CF046CFAF
:100DE000E80DF91D9081911104C044E240838F5FAA
:100DF000F1CF9A30E0F73ACF406850CF8091480267
:100E000081117CC00E94B60240916D020091650282
:100E10001091660220916702309168026B017C019B
:100E2000C01AD10AE20AF30A00916B0210916C0217
:100E3000411104C00091690210916A02012E000C58
:100E4000220B330BC016D106E206F3066CF1609359
:100E500065027093660280936702909368028091A6
:100E60005C022091470221112CC0442391F0109282
:100E70006D0280915C028F5F80935C0290915B02B7
:100E8000891710F010925C0280915C020E94570258
:100E90000BC00E940E0280916B0290916C02892B14
:100EA00041F381E080936D0220E030E0232B09F4D0
:100EB00016CE0E940101882309F411CE0E94000081
:100EC0000ECE442391F010926D0280915C028F5FF0
:100ED00080935C0290915A02891710F010925C0284
:100EE00080915C020E942C02DFCF0E94F001809171
:100EF0006B0290916C02892B41F3D3CF8091470212
:100F000010E081111AC080915B02181768F6812FDA
:100F10000E9457028091690290916A020E948C009F
:100F2000812F0E940E0280916B0290916C020097BB
:100F300011F00E948C001F5FE6CF80915A021817B3
:100F400008F0B2CF812F0E942C028091690290910B
:100F50006A020E948C00812F0E94F00180916B0236
:100F600090916C02009711F00E948C001F5FE5CFFA
:100F7000052E97FB1EF400940E94CF0757FD07D063
:100F80000E94E20707FC03D04EF40C94CF07509563
:100F90004095309521953F4F4F4F5F4F0895909565
:100FA0008095709561957F4F8F4F9F4F08950E9458
:100FB0000408A59F900DB49F900DA49F800D911DD6
:100FC00011240895A1E21A2EAA1BBB1BFD010DC01E
:100FD000AA1FBB1FEE1FFF1FA217B307E407F507E9
:100FE00020F0A21BB30BE40BF50B661F771F881FC5
:100FF000991F1A9469F760957095809590959B015B
:10100000AC01BD01CF010895A29FB001B39FC00103
:10101000A39F700D811D1124911DB29F700D811D24
:101020001124911D08950E941A086894B1110C941E
:10103000A90808950E948E0888F09F5798F0B92F4C
:101040009927B751B0F0E1F0660F771F881F991FFD
:101050001AF0BA95C9F714C0B13091F00E94A808EF
:10106000B1E008950C94A808672F782F8827B85FFF
:1010700039F0B93FCCF3869577956795B395D9F755
:101080003EF490958095709561957F4F8F4F9F4F5F
:101090000895E89409C097FB3EF49095809570956B
:1010A00061957F4F8F4F9F4F9923A9F0F92F96E9B4
:1010B000BB279395F695879577956795B795F11129
:1010C000F8CFFAF4BB0F11F460FF1BC06F5F7F4FC6
:1010D0008F4F9F4F16C0882311F096E911C07723D8
:1010E00021F09EE8872F762F05C0662371F096E8E1
:1010F000862F70E060E02AF09A95660F771F881FB0
:10110000DAF7880F9695879597F9089557FD9058C7
:10111000440F551F59F05F3F71F04795880F97FBBB
:10112000991F61F09F3F79F0879508951216130675
:101130001406551FF2CF4695F1DF08C016161706A4
:101140001806991FF1CF86957105610508940895D9
:10115000E894BB2766277727CB0197F908950E946B
:10116000C2080C9433090E94250938F00E942C090A
:1011700020F0952311F00C941C090C9422091124E1
:101180000C94A9080E94860870F3959FC1F3950FEF
:1011900050E0551F629FF001729FBB27F00DB11DFB
:1011A000639FAA27F00DB11DAA1F649F6627B00D8B
:1011B000A11D661F829F2227B00DA11D621F739F74
:1011C000B00DA11D621F839FA00D611D221F749F82
:1011D0003327A00D611D231F849F600D211D822FC9
:1011E000762F6A2F11249F5750409AF0F1F08823F0
:1011F0004AF0EE0FFF1FBB1F661F771F881F91501D
:101200005040A9F79E3F510580F00C941C090C94A6
:10121000A9085F3FE4F3983ED4F3869577956795E8
:10122000B795F795E7959F5FC1F7FE2B880F911D46
:101230009695879597F9089597F99F6780E870E0EC
:1012400060E008959FEF80EC089500240A9416163C
:10125000170618060906089500240A9412161306A4
:10126000140605060895092E0394000C11F4882332
:1012700052F0BB0F40F4BF2B11F460FF04C06F5F4E
:101280007F4F8F4F9F4F0895EE0FFF1F0590F491F2
:08129000E02D0994F894FFCF52
:101298000405060708090A0B3F065B4F666D7D07C4
:1012A8007F6F777C395E79713D76300E76380054E1
:1012B8003F7367506D783E3E00766E5B00408063FA
:1012C80008010000000A00000064000000E80300B4
:1012D8000010270000A086010040420F0080969869
:1012E8000000E1F50500CA9A3B00000000370197AD
:1012F80000C4008401F500D300E7000D0A004A612C
:1013080072616B20616D616E00486174692D68615E
:10131800746900426168617961004A6172616B2099
:081328003A200020636D000073
:00000001FF
